{
  "_format": "hh-sol-artifact-1",
  "contractName": "VehicleRegistry",
  "sourceName": "contracts/VehicleRegistry.sol",
  "abi": [
    {
      "anonymous": false,
      "inputs": [
        {
          "indexed": false,
          "internalType": "string",
          "name": "vehicleId",
          "type": "string"
        },
        {
          "indexed": false,
          "internalType": "address",
          "name": "from",
          "type": "address"
        },
        {
          "indexed": false,
          "internalType": "address",
          "name": "to",
          "type": "address"
        }
      ],
      "name": "OwnershipTransferred",
      "type": "event"
    },
    {
      "anonymous": false,
      "inputs": [
        {
          "indexed": false,
          "internalType": "string",
          "name": "vehicleId",
          "type": "string"
        },
        {
          "indexed": false,
          "internalType": "address",
          "name": "owner",
          "type": "address"
        }
      ],
      "name": "VehicleRegistered",
      "type": "event"
    },
    {
      "inputs": [
        {
          "internalType": "string",
          "name": "vehicleId",
          "type": "string"
        }
      ],
      "name": "getOwnershipHistory",
      "outputs": [
        {
          "internalType": "address[]",
          "name": "",
          "type": "address[]"
        }
      ],
      "stateMutability": "view",
      "type": "function"
    },
    {
      "inputs": [
        {
          "internalType": "string",
          "name": "",
          "type": "string"
        },
        {
          "internalType": "uint256",
          "name": "",
          "type": "uint256"
        }
      ],
      "name": "ownershipHistory",
      "outputs": [
        {
          "internalType": "address",
          "name": "",
          "type": "address"
        }
      ],
      "stateMutability": "view",
      "type": "function"
    },
    {
      "inputs": [
        {
          "internalType": "string",
          "name": "vehicleId",
          "type": "string"
        },
        {
          "internalType": "string",
          "name": "regNo",
          "type": "string"
        },
        {
          "internalType": "string",
          "name": "year",
          "type": "string"
        },
        {
          "internalType": "string",
          "name": "chassisNo",
          "type": "string"
        }
      ],
      "name": "registerVehicle",
      "outputs": [],
      "stateMutability": "nonpayable",
      "type": "function"
    },
    {
      "inputs": [
        {
          "internalType": "string",
          "name": "vehicleId",
          "type": "string"
        },
        {
          "internalType": "address",
          "name": "newOwner",
          "type": "address"
        }
      ],
      "name": "transferOwnership",
      "outputs": [],
      "stateMutability": "nonpayable",
      "type": "function"
    },
    {
      "inputs": [
        {
          "internalType": "string",
          "name": "",
          "type": "string"
        }
      ],
      "name": "vehicles",
      "outputs": [
        {
          "internalType": "string",
          "name": "vehicleId",
          "type": "string"
        },
        {
          "internalType": "string",
          "name": "regNo",
          "type": "string"
        },
        {
          "internalType": "string",
          "name": "year",
          "type": "string"
        },
        {
          "internalType": "string",
          "name": "chassisNo",
          "type": "string"
        },
        {
          "internalType": "address",
          "name": "owner",
          "type": "address"
        },
        {
          "internalType": "bool",
          "name": "isRegistered",
          "type": "bool"
        }
      ],
      "stateMutability": "view",
      "type": "function"
    },
    {
      "inputs": [
        {
          "internalType": "string",
          "name": "vehicleId",
          "type": "string"
        }
      ],
      "name": "verifyOwnership",
      "outputs": [
        {
          "internalType": "address",
          "name": "",
          "type": "address"
        }
      ],
      "stateMutability": "view",
      "type": "function"
    }
  ],
  "bytecode": "0x608060405234801561001057600080fd5b506115a0806100206000396000f3fe608060405234801561001057600080fd5b50600436106100615760003560e01c8062c966be14610066578063293f854e14610096578063744484a4146100c657806376d24fea146100e2578063976de5c514610112578063c0e793c214610147575b600080fd5b610080600480360381019061007b9190610bfa565b610163565b60405161008d9190610d33565b60405180910390f35b6100b060048036038101906100ab9190610bfa565b61020f565b6040516100bd9190610d64565b60405180910390f35b6100e060048036038101906100db9190610d7f565b6102c7565b005b6100fc60048036038101906100f79190610e8c565b61051a565b6040516101099190610d64565b60405180910390f35b61012c60048036038101906101279190610bfa565b61057e565b60405161013e96959493929190610f82565b60405180910390f35b610161600480360381019061015c919061102b565b61081d565b005b606060018260405161017591906110c3565b908152602001604051809103902080548060200260200160405190810160405280929190818152602001828054801561020357602002820191906000526020600020905b8160009054906101000a900473ffffffffffffffffffffffffffffffffffffffff1673ffffffffffffffffffffffffffffffffffffffff16815260200190600101908083116101b9575b50505050509050919050565b6000808260405161022091906110c3565b908152602001604051809103902060040160149054906101000a900460ff1661027e576040517f08c379a000000000000000000000000000000000000000000000000000000000815260040161027590611126565b60405180910390fd5b60008260405161028e91906110c3565b908152602001604051809103902060040160009054906101000a900473ffffffffffffffffffffffffffffffffffffffff169050919050565b6000846040516102d791906110c3565b908152602001604051809103902060040160149054906101000a900460ff1615610336576040517f08c379a000000000000000000000000000000000000000000000000000000000815260040161032d90611192565b60405180910390fd5b6040518060c001604052808581526020018481526020018381526020018281526020013373ffffffffffffffffffffffffffffffffffffffff1681526020016001151581525060008560405161038c91906110c3565b908152602001604051809103902060008201518160000190816103af91906113be565b5060208201518160010190816103c591906113be565b5060408201518160020190816103db91906113be565b5060608201518160030190816103f191906113be565b5060808201518160040160006101000a81548173ffffffffffffffffffffffffffffffffffffffff021916908373ffffffffffffffffffffffffffffffffffffffff16021790555060a08201518160040160146101000a81548160ff02191690831515021790555090505060018460405161046c91906110c3565b9081526020016040518091039020339080600181540180825580915050600190039060005260206000200160009091909190916101000a81548173ffffffffffffffffffffffffffffffffffffffff021916908373ffffffffffffffffffffffffffffffffffffffff1602179055507f0cfba914b5106da2fbba725502188ab817f680c8fe51c318c8bf6896a59f7fbd843360405161050c929190611490565b60405180910390a150505050565b600182805160208101820180518482526020830160208501208183528095505050505050818154811061054c57600080fd5b906000526020600020016000915091509054906101000a900473ffffffffffffffffffffffffffffffffffffffff1681565b6000818051602081018201805184825260208301602085012081835280955050505050506000915090508060000180546105b7906111e1565b80601f01602080910402602001604051908101604052809291908181526020018280546105e3906111e1565b80156106305780601f1061060557610100808354040283529160200191610630565b820191906000526020600020905b81548152906001019060200180831161061357829003601f168201915b505050505090806001018054610645906111e1565b80601f0160208091040260200160405190810160405280929190818152602001828054610671906111e1565b80156106be5780601f10610693576101008083540402835291602001916106be565b820191906000526020600020905b8154815290600101906020018083116106a157829003601f168201915b5050505050908060020180546106d3906111e1565b80601f01602080910402602001604051908101604052809291908181526020018280546106ff906111e1565b801561074c5780601f106107215761010080835404028352916020019161074c565b820191906000526020600020905b81548152906001019060200180831161072f57829003601f168201915b505050505090806003018054610761906111e1565b80601f016020809104026020016040519081016040528092919081815260200182805461078d906111e1565b80156107da5780601f106107af576101008083540402835291602001916107da565b820191906000526020600020905b8154815290600101906020018083116107bd57829003601f168201915b5050505050908060040160009054906101000a900473ffffffffffffffffffffffffffffffffffffffff16908060040160149054906101000a900460ff16905086565b813373ffffffffffffffffffffffffffffffffffffffff1660008260405161084591906110c3565b908152602001604051809103902060040160009054906101000a900473ffffffffffffffffffffffffffffffffffffffff1673ffffffffffffffffffffffffffffffffffffffff16146108cd576040517f08c379a00000000000000000000000000000000000000000000000000000000081526004016108c49061150c565b60405180910390fd5b6000836040516108dd91906110c3565b908152602001604051809103902060040160149054906101000a900460ff1661093b576040517f08c379a000000000000000000000000000000000000000000000000000000000815260040161093290611126565b60405180910390fd5b6000808460405161094c91906110c3565b908152602001604051809103902060040160009054906101000a900473ffffffffffffffffffffffffffffffffffffffff1690508260008560405161099191906110c3565b908152602001604051809103902060040160006101000a81548173ffffffffffffffffffffffffffffffffffffffff021916908373ffffffffffffffffffffffffffffffffffffffff1602179055506001846040516109f091906110c3565b9081526020016040518091039020839080600181540180825580915050600190039060005260206000200160009091909190916101000a81548173ffffffffffffffffffffffffffffffffffffffff021916908373ffffffffffffffffffffffffffffffffffffffff1602179055507f6840904f5b31827f74e1497360da245f56e530c8c3de3163a2d31f11493273c6848285604051610a929392919061152c565b60405180910390a150505050565b6000604051905090565b600080fd5b600080fd5b600080fd5b600080fd5b6000601f19601f8301169050919050565b7f4e487b7100000000000000000000000000000000000000000000000000000000600052604160045260246000fd5b610b0782610abe565b810181811067ffffffffffffffff82111715610b2657610b25610acf565b5b80604052505050565b6000610b39610aa0565b9050610b458282610afe565b919050565b600067ffffffffffffffff821115610b6557610b64610acf565b5b610b6e82610abe565b9050602081019050919050565b82818337600083830152505050565b6000610b9d610b9884610b4a565b610b2f565b905082815260208101848484011115610bb957610bb8610ab9565b5b610bc4848285610b7b565b509392505050565b600082601f830112610be157610be0610ab4565b5b8135610bf1848260208601610b8a565b91505092915050565b600060208284031215610c1057610c0f610aaa565b5b600082013567ffffffffffffffff811115610c2e57610c2d610aaf565b5b610c3a84828501610bcc565b91505092915050565b600081519050919050565b600082825260208201905092915050565b6000819050602082019050919050565b600073ffffffffffffffffffffffffffffffffffffffff82169050919050565b6000610c9a82610c6f565b9050919050565b610caa81610c8f565b82525050565b6000610cbc8383610ca1565b60208301905092915050565b6000602082019050919050565b6000610ce082610c43565b610cea8185610c4e565b9350610cf583610c5f565b8060005b83811015610d26578151610d0d8882610cb0565b9750610d1883610cc8565b925050600181019050610cf9565b5085935050505092915050565b60006020820190508181036000830152610d4d8184610cd5565b905092915050565b610d5e81610c8f565b82525050565b6000602082019050610d796000830184610d55565b92915050565b60008060008060808587031215610d9957610d98610aaa565b5b600085013567ffffffffffffffff811115610db757610db6610aaf565b5b610dc387828801610bcc565b945050602085013567ffffffffffffffff811115610de457610de3610aaf565b5b610df087828801610bcc565b935050604085013567ffffffffffffffff811115610e1157610e10610aaf565b5b610e1d87828801610bcc565b925050606085013567ffffffffffffffff811115610e3e57610e3d610aaf565b5b610e4a87828801610bcc565b91505092959194509250565b6000819050919050565b610e6981610e56565b8114610e7457600080fd5b50565b600081359050610e8681610e60565b92915050565b60008060408385031215610ea357610ea2610aaa565b5b600083013567ffffffffffffffff811115610ec157610ec0610aaf565b5b610ecd85828601610bcc565b9250506020610ede85828601610e77565b9150509250929050565b600081519050919050565b600082825260208201905092915050565b60005b83811015610f22578082015181840152602081019050610f07565b60008484015250505050565b6000610f3982610ee8565b610f438185610ef3565b9350610f53818560208601610f04565b610f5c81610abe565b840191505092915050565b60008115159050919050565b610f7c81610f67565b82525050565b600060c0820190508181036000830152610f9c8189610f2e565b90508181036020830152610fb08188610f2e565b90508181036040830152610fc48187610f2e565b90508181036060830152610fd88186610f2e565b9050610fe76080830185610d55565b610ff460a0830184610f73565b979650505050505050565b61100881610c8f565b811461101357600080fd5b50565b60008135905061102581610fff565b92915050565b6000806040838503121561104257611041610aaa565b5b600083013567ffffffffffffffff8111156110605761105f610aaf565b5b61106c85828601610bcc565b925050602061107d85828601611016565b9150509250929050565b600081905092915050565b600061109d82610ee8565b6110a78185611087565b93506110b7818560208601610f04565b80840191505092915050565b60006110cf8284611092565b915081905092915050565b7f56656869636c65206e6f74207265676973746572656400000000000000000000600082015250565b6000611110601683610ef3565b915061111b826110da565b602082019050919050565b6000602082019050818103600083015261113f81611103565b9050919050565b7f416c726561647920726567697374657265640000000000000000000000000000600082015250565b600061117c601283610ef3565b915061118782611146565b602082019050919050565b600060208201905081810360008301526111ab8161116f565b9050919050565b7f4e487b7100000000000000000000000000000000000000000000000000000000600052602260045260246000fd5b600060028204905060018216806111f957607f821691505b60208210810361120c5761120b6111b2565b5b50919050565b60008190508160005260206000209050919050565b60006020601f8301049050919050565b600082821b905092915050565b6000600883026112747fffffffffffffffffffffffffffffffffffffffffffffffffffffffffffffffff82611237565b61127e8683611237565b95508019841693508086168417925050509392505050565b6000819050919050565b60006112bb6112b66112b184610e56565b611296565b610e56565b9050919050565b6000819050919050565b6112d5836112a0565b6112e96112e1826112c2565b848454611244565b825550505050565b600090565b6112fe6112f1565b6113098184846112cc565b505050565b5b8181101561132d576113226000826112f6565b60018101905061130f565b5050565b601f8211156113725761134381611212565b61134c84611227565b8101602085101561135b578190505b61136f61136785611227565b83018261130e565b50505b505050565b600082821c905092915050565b600061139560001984600802611377565b1980831691505092915050565b60006113ae8383611384565b9150826002028217905092915050565b6113c782610ee8565b67ffffffffffffffff8111156113e0576113df610acf565b5b6113ea82546111e1565b6113f5828285611331565b600060209050601f8311600181146114285760008415611416578287015190505b61142085826113a2565b865550611488565b601f19841661143686611212565b60005b8281101561145e57848901518255600182019150602085019450602081019050611439565b8683101561147b5784890151611477601f891682611384565b8355505b6001600288020188555050505b505050505050565b600060408201905081810360008301526114aa8185610f2e565b90506114b96020830184610d55565b9392505050565b7f4e6f7420746865206f776e657200000000000000000000000000000000000000600082015250565b60006114f6600d83610ef3565b9150611501826114c0565b602082019050919050565b60006020820190508181036000830152611525816114e9565b9050919050565b600060608201905081810360008301526115468186610f2e565b90506115556020830185610d55565b6115626040830184610d55565b94935050505056fea2646970667358221220cd52d86cb35201763ead9dd57fd3eab86a7cca969907a5bc965d73f990651d9264736f6c63430008140033",
  "linkReferences": {},
  "deployedLinkReferences": {}
}